{
  "contractName": "Voting",
  "abi": [
    {
      "inputs": [],
      "payable": false,
      "stateMutability": "nonpayable",
      "type": "constructor",
      "signature": "constructor"
    },
    {
      "anonymous": false,
      "inputs": [
        {
          "indexed": false,
          "name": "messag",
          "type": "string"
        }
      ],
      "name": "CheckingFucnctionEvent",
      "type": "event",
      "signature": "0x2dd8f8fd8c7e1040ef30a516520dcc8955baaa2f8bcdb3f14715ffc7728a2886"
    },
    {
      "anonymous": false,
      "inputs": [
        {
          "indexed": false,
          "name": "name",
          "type": "string"
        },
        {
          "indexed": false,
          "name": "messag",
          "type": "string"
        }
      ],
      "name": "eventCalled",
      "type": "event",
      "signature": "0x2e2445376bf0989bdf34340524a3cf7d7c18e238bd6c1a7066ff3c53ca6397d1"
    },
    {
      "anonymous": false,
      "inputs": [
        {
          "indexed": false,
          "name": "mes",
          "type": "string"
        },
        {
          "indexed": false,
          "name": "y",
          "type": "address"
        }
      ],
      "name": "eventCalledAddrssed",
      "type": "event",
      "signature": "0xe7375f62f84745ecd93471f639ffb24f821ed70bc7615603e509efaa8c8396ab"
    },
    {
      "anonymous": false,
      "inputs": [
        {
          "indexed": false,
          "name": "addm",
          "type": "address"
        },
        {
          "indexed": false,
          "name": "sen",
          "type": "address"
        }
      ],
      "name": "checkAdmin",
      "type": "event",
      "signature": "0x78e6d60f2c0a82cf12334effcf7f316303a71d5911ff101443e84fb7d467d476"
    },
    {
      "constant": true,
      "inputs": [],
      "name": "checkVotersRegistered",
      "outputs": [
        {
          "name": "",
          "type": "bool"
        }
      ],
      "payable": false,
      "stateMutability": "view",
      "type": "function",
      "signature": "0x24f514a9"
    },
    {
      "constant": false,
      "inputs": [
        {
          "name": "_name",
          "type": "string"
        },
        {
          "name": "_dob",
          "type": "uint256"
        },
        {
          "name": "_cnic",
          "type": "uint256"
        },
        {
          "name": "_disrict",
          "type": "string"
        },
        {
          "name": "_uc",
          "type": "string"
        },
        {
          "name": "_education",
          "type": "string"
        }
      ],
      "name": "voterRegistration",
      "outputs": [
        {
          "name": "",
          "type": "bool"
        }
      ],
      "payable": false,
      "stateMutability": "nonpayable",
      "type": "function",
      "signature": "0x05232563"
    },
    {
      "constant": false,
      "inputs": [
        {
          "name": "_voteTo",
          "type": "address"
        }
      ],
      "name": "voteForCandidate",
      "outputs": [],
      "payable": false,
      "stateMutability": "nonpayable",
      "type": "function",
      "signature": "0x163046eb"
    },
    {
      "constant": false,
      "inputs": [
        {
          "name": "_name",
          "type": "string"
        },
        {
          "name": "_education",
          "type": "string"
        },
        {
          "name": "_cnic",
          "type": "uint256"
        },
        {
          "name": "_dob",
          "type": "uint256"
        },
        {
          "name": "_district",
          "type": "string"
        },
        {
          "name": "_uc",
          "type": "string"
        }
      ],
      "name": "candidateRegistration",
      "outputs": [
        {
          "name": "",
          "type": "bool"
        }
      ],
      "payable": false,
      "stateMutability": "nonpayable",
      "type": "function",
      "signature": "0x3566037a"
    },
    {
      "constant": true,
      "inputs": [],
      "name": "winners",
      "outputs": [
        {
          "name": "",
          "type": "address"
        }
      ],
      "payable": false,
      "stateMutability": "view",
      "type": "function",
      "signature": "0xa487bcd8"
    },
    {
      "constant": false,
      "inputs": [],
      "name": "selfDestruction",
      "outputs": [],
      "payable": false,
      "stateMutability": "nonpayable",
      "type": "function",
      "signature": "0xf80334ae"
    },
    {
      "constant": true,
      "inputs": [],
      "name": "checkIsRegistered",
      "outputs": [
        {
          "name": "",
          "type": "bool"
        }
      ],
      "payable": false,
      "stateMutability": "view",
      "type": "function",
      "signature": "0x419dfe8f"
    },
    {
      "constant": true,
      "inputs": [],
      "name": "retAllAddresses",
      "outputs": [
        {
          "name": "",
          "type": "address"
        }
      ],
      "payable": false,
      "stateMutability": "view",
      "type": "function",
      "signature": "0xc6a484e1"
    },
    {
      "constant": true,
      "inputs": [],
      "name": "voteReceviedToMe",
      "outputs": [
        {
          "name": "",
          "type": "uint256"
        }
      ],
      "payable": false,
      "stateMutability": "view",
      "type": "function",
      "signature": "0x81009d9f"
    },
    {
      "constant": true,
      "inputs": [],
      "name": "totalVotersRegistered",
      "outputs": [
        {
          "name": "",
          "type": "uint256"
        }
      ],
      "payable": false,
      "stateMutability": "view",
      "type": "function",
      "signature": "0xd3b3f37e"
    }
  ],
  "bytecode": "0x608060405234801561001057600080fd5b50336000806101000a81548173ffffffffffffffffffffffffffffffffffffffff021916908373ffffffffffffffffffffffffffffffffffffffff16021790555042600281905550611c50806100676000396000f3fe6080604052600436106100a4576000357c0100000000000000000000000000000000000000000000000000000000900463ffffffff16806305232563146100a9578063163046eb1461036257806324f514a9146103b35780633566037a146103e2578063419dfe8f1461069b57806381009d9f146106ca578063a487bcd8146106f5578063c6a484e11461074c578063d3b3f37e146107a3578063f80334ae146107ce575b600080fd5b3480156100b557600080fd5b50610348600480360360c08110156100cc57600080fd5b81019080803590602001906401000000008111156100e957600080fd5b8201836020820111156100fb57600080fd5b8035906020019184600183028401116401000000008311171561011d57600080fd5b91908080601f016020809104026020016040519081016040528093929190818152602001838380828437600081840152601f19601f82011690508083019250505050505050919291929080359060200190929190803590602001909291908035906020019064010000000081111561019457600080fd5b8201836020820111156101a657600080fd5b803590602001918460018302840111640100000000831117156101c857600080fd5b91908080601f016020809104026020016040519081016040528093929190818152602001838380828437600081840152601f19601f8201169050808301925050505050505091929192908035906020019064010000000081111561022b57600080fd5b82018360208201111561023d57600080fd5b8035906020019184600183028401116401000000008311171561025f57600080fd5b91908080601f016020809104026020016040519081016040528093929190818152602001838380828437600081840152601f19601f820116905080830192505050505050509192919290803590602001906401000000008111156102c257600080fd5b8201836020820111156102d457600080fd5b803590602001918460018302840111640100000000831117156102f657600080fd5b91908080601f016020809104026020016040519081016040528093929190818152602001838380828437600081840152601f19601f8201169050808301925050505050505091929192905050506107e5565b604051808215151515815260200191505060405180910390f35b34801561036e57600080fd5b506103b16004803603602081101561038557600080fd5b81019080803573ffffffffffffffffffffffffffffffffffffffff16906020019092919050505061098d565b005b3480156103bf57600080fd5b506103c8610ba9565b604051808215151515815260200191505060405180910390f35b3480156103ee57600080fd5b50610681600480360360c081101561040557600080fd5b810190808035906020019064010000000081111561042257600080fd5b82018360208201111561043457600080fd5b8035906020019184600183028401116401000000008311171561045657600080fd5b91908080601f016020809104026020016040519081016040528093929190818152602001838380828437600081840152601f19601f820116905080830192505050505050509192919290803590602001906401000000008111156104b957600080fd5b8201836020820111156104cb57600080fd5b803590602001918460018302840111640100000000831117156104ed57600080fd5b91908080601f016020809104026020016040519081016040528093929190818152602001838380828437600081840152601f19601f82011690508083019250505050505050919291929080359060200190929190803590602001909291908035906020019064010000000081111561056457600080fd5b82018360208201111561057657600080fd5b8035906020019184600183028401116401000000008311171561059857600080fd5b91908080601f016020809104026020016040519081016040528093929190818152602001838380828437600081840152601f19601f820116905080830192505050505050509192919290803590602001906401000000008111156105fb57600080fd5b82018360208201111561060d57600080fd5b8035906020019184600183028401116401000000008311171561062f57600080fd5b91908080601f016020809104026020016040519081016040528093929190818152602001838380828437600081840152601f19601f820116905080830192505050505050509192919290505050610c4b565b604051808215151515815260200191505060405180910390f35b3480156106a757600080fd5b506106b0610f48565b604051808215151515815260200191505060405180910390f35b3480156106d657600080fd5b506106df611002565b6040518082815260200191505060405180910390f35b34801561070157600080fd5b5061070a6110c8565b604051808273ffffffffffffffffffffffffffffffffffffffff1673ffffffffffffffffffffffffffffffffffffffff16815260200191505060405180910390f35b34801561075857600080fd5b506107616119ba565b604051808273ffffffffffffffffffffffffffffffffffffffff1673ffffffffffffffffffffffffffffffffffffffff16815260200191505060405180910390f35b3480156107af57600080fd5b506107b8611a77565b6040518082815260200191505060405180910390f35b3480156107da57600080fd5b506107e3611a84565b005b60006107ef610ba9565b15156107fe5760009050610983565b6000600460003373ffffffffffffffffffffffffffffffffffffffff1673ffffffffffffffffffffffffffffffffffffffff168152602001908152602001600020905087816000019080519060200190610859929190611af8565b5086816002018190555085816003018190555082816004019080519060200190610884929190611af8565b508481600501908051906020019061089d929190611af8565b50838160060190805190602001906108b6929190611af8565b50338160010160006101000a81548173ffffffffffffffffffffffffffffffffffffffff021916908373ffffffffffffffffffffffffffffffffffffffff16021790555060008160070160006101000a81548160ff02191690831515021790555060053390806001815401808255809150509060018203906000526020600020016000909192909190916101000a81548173ffffffffffffffffffffffffffffffffffffffff021916908373ffffffffffffffffffffffffffffffffffffffff1602179055505060019150505b9695505050505050565b610995610ba9565b1515610a2f576040517f08c379a000000000000000000000000000000000000000000000000000000000815260040180806020018281038252602b8152602001807f20536f727279210a0a20596f7520617265206e6f74205265676973746572656481526020017f20566f74657273200a0a2000000000000000000000000000000000000000000081525060400191505060405180910390fd5b60001515600460003373ffffffffffffffffffffffffffffffffffffffff1673ffffffffffffffffffffffffffffffffffffffff16815260200190815260200160002060070160009054906101000a900460ff161515141515610afa576040517f08c379a00000000000000000000000000000000000000000000000000000000081526004018080602001828103825260128152602001807f20596f7520416c726561647920566f746564000000000000000000000000000081525060200191505060405180910390fd5b6001600660008373ffffffffffffffffffffffffffffffffffffffff1673ffffffffffffffffffffffffffffffffffffffff168152602001908152602001600020600701600082825401925050819055506001600460003373ffffffffffffffffffffffffffffffffffffffff1673ffffffffffffffffffffffffffffffffffffffff16815260200190815260200160002060070160006101000a81548160ff02191690831515021790555050565b600080600090505b600580549050811015610c42573373ffffffffffffffffffffffffffffffffffffffff16600582815481101515610be457fe5b9060005260206000200160009054906101000a900473ffffffffffffffffffffffffffffffffffffffff1673ffffffffffffffffffffffffffffffffffffffff161415610c35576001915050610c48565b8080600101915050610bb1565b60009150505b90565b6000610c55610f48565b1515610c645760009050610f3e565b6000600660003373ffffffffffffffffffffffffffffffffffffffff1673ffffffffffffffffffffffffffffffffffffffff168152602001908152602001600020905087816000019080519060200190610cbf929190611af8565b5086816002019080519060200190610cd8929190611af8565b5060008160070181905550848160060181905550338160050160006101000a81548173ffffffffffffffffffffffffffffffffffffffff021916908373ffffffffffffffffffffffffffffffffffffffff16021790555085816001018190555083816003019080519060200190610d50929190611af8565b5082816004019080519060200190610d69929190611af8565b5080600660003373ffffffffffffffffffffffffffffffffffffffff1673ffffffffffffffffffffffffffffffffffffffff16815260200190815260200160002060008201816000019080546001816001161561010002031660029004610dd1929190611b78565b506001820154816001015560028201816002019080546001816001161561010002031660029004610e03929190611b78565b5060038201816003019080546001816001161561010002031660029004610e2b929190611b78565b5060048201816004019080546001816001161561010002031660029004610e53929190611b78565b506005820160009054906101000a900473ffffffffffffffffffffffffffffffffffffffff168160050160006101000a81548173ffffffffffffffffffffffffffffffffffffffff021916908373ffffffffffffffffffffffffffffffffffffffff160217905550600682015481600601556007820154816007015590505060073390806001815401808255809150509060018203906000526020600020016000909192909190916101000a81548173ffffffffffffffffffffffffffffffffffffffff021916908373ffffffffffffffffffffffffffffffffffffffff1602179055505060019150505b9695505050505050565b600080600090505b600780549050811015610ff95760006007805490501415610f75576000915050610fff565b3373ffffffffffffffffffffffffffffffffffffffff16600782815481101515610f9b57fe5b9060005260206000200160009054906101000a900473ffffffffffffffffffffffffffffffffffffffff1673ffffffffffffffffffffffffffffffffffffffff161415610fec576001915050610fff565b8080600101915050610f50565b50600090505b90565b600061100c610f48565b1515611080576040517f08c379a00000000000000000000000000000000000000000000000000000000081526004018080602001828103825260208152602001807f596f7520617265206e6f7420726567697374657265642043616e64696461746581525060200191505060405180910390fd5b600660003373ffffffffffffffffffffffffffffffffffffffff1673ffffffffffffffffffffffffffffffffffffffff16815260200190815260200160002060070154905090565b6000806000809054906101000a900473ffffffffffffffffffffffffffffffffffffffff1673ffffffffffffffffffffffffffffffffffffffff163373ffffffffffffffffffffffffffffffffffffffff16141561149f57600080600092505b600160078054905003831015611494576006600060078580600101965081548110151561115157fe5b9060005260206000200160009054906101000a900473ffffffffffffffffffffffffffffffffffffffff1673ffffffffffffffffffffffffffffffffffffffff1673ffffffffffffffffffffffffffffffffffffffff16815260200190815260200160002060070154600660006007868154811015156111cd57fe5b9060005260206000200160009054906101000a900473ffffffffffffffffffffffffffffffffffffffff1673ffffffffffffffffffffffffffffffffffffffff1673ffffffffffffffffffffffffffffffffffffffff1681526020019081526020016000206007015411151561136a576006600060078580600101965081548110151561125657fe5b9060005260206000200160009054906101000a900473ffffffffffffffffffffffffffffffffffffffff1673ffffffffffffffffffffffffffffffffffffffff1673ffffffffffffffffffffffffffffffffffffffff168152602001908152602001600020600701549150600660006007858060010196508154811015156112da57fe5b9060005260206000200160009054906101000a900473ffffffffffffffffffffffffffffffffffffffff1673ffffffffffffffffffffffffffffffffffffffff1673ffffffffffffffffffffffffffffffffffffffff16815260200190815260200160002060050160009054906101000a900473ffffffffffffffffffffffffffffffffffffffff169050611487565b6006600060078581548110151561137d57fe5b9060005260206000200160009054906101000a900473ffffffffffffffffffffffffffffffffffffffff1673ffffffffffffffffffffffffffffffffffffffff1673ffffffffffffffffffffffffffffffffffffffff168152602001908152602001600020600701549150600660006007858154811015156113fb57fe5b9060005260206000200160009054906101000a900473ffffffffffffffffffffffffffffffffffffffff1673ffffffffffffffffffffffffffffffffffffffff1673ffffffffffffffffffffffffffffffffffffffff16815260200190815260200160002060050160009054906101000a900473ffffffffffffffffffffffffffffffffffffffff1690505b8280600101935050611128565b8093505050506119b7565b62015180600254014211151561151d576040517f08c379a00000000000000000000000000000000000000000000000000000000081526004018080602001828103825260148152602001807f20566f74696e6720697320436f6e74696e75656400000000000000000000000081525060200191505060405180910390fd5b6000600660006007600081548110151561153357fe5b9060005260206000200160009054906101000a900473ffffffffffffffffffffffffffffffffffffffff1673ffffffffffffffffffffffffffffffffffffffff1673ffffffffffffffffffffffffffffffffffffffff168152602001908152602001600020600701549050600060066000600760008154811015156115b457fe5b9060005260206000200160009054906101000a900473ffffffffffffffffffffffffffffffffffffffff1673ffffffffffffffffffffffffffffffffffffffff1673ffffffffffffffffffffffffffffffffffffffff16815260200190815260200160002060050160009054906101000a900473ffffffffffffffffffffffffffffffffffffffff169050600092505b6001600780549050038310156119b0576006600060078580600101965081548110151561166d57fe5b9060005260206000200160009054906101000a900473ffffffffffffffffffffffffffffffffffffffff1673ffffffffffffffffffffffffffffffffffffffff1673ffffffffffffffffffffffffffffffffffffffff16815260200190815260200160002060070154600660006007868154811015156116e957fe5b9060005260206000200160009054906101000a900473ffffffffffffffffffffffffffffffffffffffff1673ffffffffffffffffffffffffffffffffffffffff1673ffffffffffffffffffffffffffffffffffffffff16815260200190815260200160002060070154111515611886576006600060078580600101965081548110151561177257fe5b9060005260206000200160009054906101000a900473ffffffffffffffffffffffffffffffffffffffff1673ffffffffffffffffffffffffffffffffffffffff1673ffffffffffffffffffffffffffffffffffffffff168152602001908152602001600020600701549150600660006007858060010196508154811015156117f657fe5b9060005260206000200160009054906101000a900473ffffffffffffffffffffffffffffffffffffffff1673ffffffffffffffffffffffffffffffffffffffff1673ffffffffffffffffffffffffffffffffffffffff16815260200190815260200160002060050160009054906101000a900473ffffffffffffffffffffffffffffffffffffffff1690506119a3565b6006600060078581548110151561189957fe5b9060005260206000200160009054906101000a900473ffffffffffffffffffffffffffffffffffffffff1673ffffffffffffffffffffffffffffffffffffffff1673ffffffffffffffffffffffffffffffffffffffff1681526020019081526020016000206007015491506006600060078581548110151561191757fe5b9060005260206000200160009054906101000a900473ffffffffffffffffffffffffffffffffffffffff1673ffffffffffffffffffffffffffffffffffffffff1673ffffffffffffffffffffffffffffffffffffffff16815260200190815260200160002060050160009054906101000a900473ffffffffffffffffffffffffffffffffffffffff1690505b8280600101935050611644565b8093505050505b90565b60008060009050600780549050811015611a7257600660006007838154811015156119e157fe5b9060005260206000200160009054906101000a900473ffffffffffffffffffffffffffffffffffffffff1673ffffffffffffffffffffffffffffffffffffffff1673ffffffffffffffffffffffffffffffffffffffff16815260200190815260200160002060050160009054906101000a900473ffffffffffffffffffffffffffffffffffffffff16915050611a74565b505b90565b6000600580549050905090565b6000809054906101000a900473ffffffffffffffffffffffffffffffffffffffff1673ffffffffffffffffffffffffffffffffffffffff163373ffffffffffffffffffffffffffffffffffffffff16141515611adf57600080fd5b3373ffffffffffffffffffffffffffffffffffffffff16ff5b828054600181600116156101000203166002900490600052602060002090601f016020900481019282601f10611b3957805160ff1916838001178555611b67565b82800160010185558215611b67579182015b82811115611b66578251825591602001919060010190611b4b565b5b509050611b749190611bff565b5090565b828054600181600116156101000203166002900490600052602060002090601f016020900481019282601f10611bb15780548555611bee565b82800160010185558215611bee57600052602060002091601f016020900482015b82811115611bed578254825591600101919060010190611bd2565b5b509050611bfb9190611bff565b5090565b611c2191905b80821115611c1d576000816000905550600101611c05565b5090565b9056fea165627a7a72305820f76ae4a99f26d011e0326f5a1aef8d0768d16f15c84b4706a5a7f907214eb6360029",
  "source": "pragma solidity ^0.5.0;\r\n\r\ncontract Voting{\r\n    \r\n    address admin;\r\n    address[] miners;\r\n    uint votingTime;\r\n    address winner;\r\n    \r\n    // Candidtate Details for Registration\r\n    struct voter{\r\n       string name; \r\n       address voterAddr;\r\n       uint dob;\r\n       uint cnic;\r\n       string education;\r\n       string district;\r\n       string UC;\r\n       bool voteStatus;    \r\n    }\r\n    // Candidate Details \r\n     struct  candidate {\r\n        string name;\r\n        uint cnic;\r\n        string education;\r\n        string district;\r\n        string UC;\r\n        // address voterAddr;\r\n        // bool registeredStatus;\r\n        address candidateAddr;\r\n        // string addrFrom;\r\n        // string employment;\r\n        // string uinionName;\r\n        uint dob;\r\n        uint voteReceived;\r\n        \r\n    }\r\n\r\n    mapping(address => voter) Voters; // storeing the struct of voters \r\n    address[] votersArr;\r\n    mapping(address => candidate) Candidates; // Storing the struct of Candidates\r\n     address[] candidatesArr;\r\n    // constructor of the contract\r\n   constructor()public {\r\n        admin = msg.sender; // The Contract Deployer is Assign as Administrator\r\n        votingTime = now;\r\n    }\r\n    event CheckingFucnctionEvent(string messag);\r\n    event eventCalled(string name, string messag);\r\n    event eventCalledAddrssed(string mes,address y);\r\n    event checkAdmin(address addm,address sen);\r\n    //OnlyAdmin modifier\r\n    modifier onlyAdmin(){\r\n        require(msg.sender ==admin);\r\n        _;\r\n    }\r\n    \r\n       // Check Voters are aleady Registerd or not\r\n    function checkVotersRegistered()public view returns(bool){\r\n        uint i;\r\n        for(i = 0 ; i < votersArr.length ; i++){\r\n            if(votersArr[i]== msg.sender)\r\n            {\r\n                return true;\r\n            }\r\n        }\r\n        return false;\r\n    }\r\n       \r\n    // Voter Registrations\r\n    function voterRegistration(string memory _name, uint  _dob ,uint _cnic, string memory _disrict, string memory _uc, string memory _education) public returns(bool) {\r\n        \r\n        // require(!checkVotersRegistered(), \" This Voter is Aleady Registerd Thanks\\n\");\r\n        if(!checkVotersRegistered())\r\n        {\r\n            return false;\r\n        }\r\n     voter storage voters= Voters[msg.sender];\r\n     voters.name = _name;\r\n     voters.dob = _dob;\r\n     voters.cnic = _cnic;\r\n     voters.education = _education;\r\n     voters.district = _disrict;\r\n     voters.UC = _uc;\r\n     voters.voterAddr = msg.sender;\r\n     voters.voteStatus = false;\r\n     votersArr.push(msg.sender);\r\n     return true;\r\n    }\r\n    // Registered Voter Vote To Candidate\r\n    \r\n    function voteForCandidate(address _voteTo)  public{\r\n        \r\n     require(checkVotersRegistered(),\" Sorry!\\n\\n You are not Registered Voters \\n\\n \");\r\n     require(Voters[msg.sender].voteStatus == false, \" You Already Voted\");\r\n     Candidates[_voteTo].voteReceived +=1;\r\n     Voters[msg.sender].voteStatus = true;\r\n        \r\n    }\r\n    //Candidate Reigistation\r\n    function candidateRegistration(string memory _name, string memory _education, uint _cnic , uint _dob, string memory _district ,string memory _uc)\r\n    public returns(bool){\r\n        \r\n        // require(!checkIsRegistered() , \" You alerady Registered Thanks\\n\\n\");\r\n        if(!checkIsRegistered()){\r\n            return false;\r\n        }\r\n        candidate storage candi = Candidates[msg.sender];\r\n        candi.name = _name;\r\n        candi.education = _education;\r\n        // candi.addrFrom = _addrOfCnic;\r\n        candi.voteReceived = 0;\r\n        candi.dob = _dob;\r\n        candi.candidateAddr = msg.sender;\r\n        candi.cnic =_cnic;\r\n        candi.district = _district;\r\n        candi.UC = _uc;\r\n        Candidates[msg.sender]=candi;\r\n        candidatesArr.push(msg.sender);\r\n        return true;\r\n    }\r\n    \r\n    \r\n   \r\n    // Reveal Winner\r\n    function winners()  public view returns(address){\r\n        uint i;\r\n      \r\n     if(msg.sender == admin){ // For Instant Admin Only Show the Winner\r\n        uint highest ;//= Candidates[candidatesArr[0]].voteReceived;\r\n         address winAddress;// =Candidates[candidatesArr[0]].candidateAddr;\r\n         for(i = 0 ; i < candidatesArr.length - 1; i++)\r\n         {\r\n             if(Candidates[candidatesArr[i]].voteReceived <= Candidates[candidatesArr[i++]].voteReceived)\r\n             {\r\n                 highest= Candidates[candidatesArr[i++]].voteReceived;\r\n                 winAddress = Candidates[candidatesArr[i++]].candidateAddr;\r\n             }\r\n             else{\r\n                 highest=Candidates[candidatesArr[i]].voteReceived;\r\n                winAddress = Candidates[candidatesArr[i]].candidateAddr;\r\n\r\n             }\r\n         }\r\n         return winAddress;\r\n     }\r\n     else{ // The User only See the Winner after the voting time is end.\r\n         require(now > votingTime + 86400,\" Voting is Continued\");\r\n         uint highest = Candidates[candidatesArr[0]].voteReceived;\r\n         address winAddress = Candidates[candidatesArr[0]].candidateAddr;\r\n         for(i = 0 ; i < candidatesArr.length - 1; i++)\r\n         {\r\n             if(Candidates[candidatesArr[i]].voteReceived <= Candidates[candidatesArr[i++]].voteReceived)\r\n             {\r\n                 highest= Candidates[candidatesArr[i++]].voteReceived;\r\n                 winAddress = Candidates[candidatesArr[i++]].candidateAddr;\r\n             }\r\n             else{\r\n                 highest=Candidates[candidatesArr[i]].voteReceived;\r\n                winAddress = Candidates[candidatesArr[i]].candidateAddr;\r\n\r\n             }\r\n         }\r\n         \r\n         return winAddress;\r\n     }\r\n    }\r\n    \r\n    // Contract Destruction if any Error found this only done by Admin\r\n    function selfDestruction() public  onlyAdmin {\r\n\r\n        selfdestruct(msg.sender);\r\n       // return \"Your Contract is Destroyed\";\r\n    }\r\n    \r\n    \r\n    \r\n     // Check Candidate are alerady Registered or not\r\n    function checkIsRegistered() public view returns(bool)\r\n    {\r\n\r\n        for(  uint i = 0 ; i < candidatesArr.length ; i++)\r\n        {\r\n            if(candidatesArr.length ==0)   {     return false;  }\r\n            \r\n            if(candidatesArr[i] == msg.sender) {  return true;  }\r\n         }\r\n        return false;\r\n    }\r\n    \r\n    // Return All Registend address\r\n    function retAllAddresses()public view  returns(address){\r\n        \r\n        for(uint i=0; i<candidatesArr.length; i++){\r\n           return Candidates[candidatesArr[i]].candidateAddr;\r\n        //return(candidatesArr[i].voteReceived  , Candidates[candidatesArr[i]].candidateAddr);\r\n        }\r\n    }\r\n    \r\n    // Check voteReceived By The candidateAddr\r\n    function voteReceviedToMe()public view returns(uint){\r\n        require(checkIsRegistered(),\"You are not registered Candidate\");\r\n        return Candidates[msg.sender].voteReceived;\r\n    }\r\n    // function for total Voters registered\r\n    function totalVotersRegistered()public view returns(uint){\r\n        return votersArr.length;\r\n    }\r\n\r\n\r\n    \r\n}",
  "sourcePath": "C:/Users/Nasir Ali.NEXTAGE/Desktop/Apps/Voting_Dapp/contracts/Voting.sol",
  "compiler": {
    "name": "solc",
    "version": "0.5.0+commit.1d4f565a.Emscripten.clang"
  },
  "schemaVersion": "3.0.6",
  "updatedAt": "2019-05-10T09:48:16.155Z",
  "devdoc": {
    "methods": {}
  },
  "userdoc": {
    "methods": {}
  }
}